:020000040800F2
:100000000050002085050008D5050008D50500082A
:10001000D5050008D5050008D5050008000000003A
:10002000000000000000000000000000D5050008EE
:10003000D505000800000000D5050008550400089B
:10004000D5050008D5050008D5050008D505000828
:10005000D5050008D50500081D0300083103000878
:10006000D5050008D5050008D5050008D505000808
:10007000D5050008D5050008D5050008D5050008F8
:10008000D5050008D5050008D5050008D5050008E8
:10009000D5050008D5050008D5050008D5050008D8
:1000A000D5050008D5050008D5050008D5050008C8
:1000B000D5050008D5050008D5050008D5050008B8
:1000C000D5050008D5050008D5050008D5050008A8
:1000D000D5050008D5050008D5050008D505000898
:1000E000D5050008D505000800000000D50500086A
:1000F000D5050008D5050008D5050008D505000878
:10010000D5050008D5050008D5050008D505000867
:10011000D5050008D5050008D5050008D505000857
:10012000D5050008D5050008D5050008D505000847
:1001300010B5054C237833B9044B13B10448AFF321
:1001400000800123237010BD00000020000000008B
:100150002006000808B5034B1BB103490348AFF361
:10016000008008BD000000000400002020060008F8
:1001700080B483B000AF0346FB710B46BB711346DE
:100180007B71FB79022B00F2B680BB790F2B00F25A
:10019000B2807B790F2B00F2AE80BB79072B52D84F
:1001A000FB79022B37D0022B00F3A680002B02D064
:1001B000012B18D0A0E0534B1B68BA7992000F2195
:1001C00001FA02F2D24311464E4A0B4013604D4BE6
:1001D0001B687979BA79920001FA02F21146494A0C
:1001E0000B43136088E0484B1B68BA7992000F21DB
:1001F00001FA02F2D2431146434A0B401360424BCC
:100200001B687979BA79920001FA02F211463E4AE6
:100210000B43136070E03D4B1B68BA7992000F21CD
:1002200001FA02F2D2431146384A0B401360374BB1
:100230001B687979BA79920001FA02F21146334AC1
:100240000B43136058E0BB790F2B54D8BB79083BA4
:10025000BB71FB79022B36D0022B4DDC002B02D078
:10026000012B18D048E02A4B1B68BA7992000F2165
:1002700001FA02F2D2431146254A0B401360244B87
:100280001B687979BA79920001FA02F21146204A84
:100290000B43136030E01F4B1B68BA7992000F21AB
:1002A00001FA02F2D24311461A4A0B401360194B6D
:1002B0001B687979BA79920001FA02F21146154A5F
:1002C0000B43136018E0144B1B68BA7992000F219E
:1002D00001FA02F2D24311460F4A0B4013600E4B53
:1002E0001B687979BA79920001FA02F211460A4A3A
:1002F0000B43136000E000BF00BF0C37BD4680BC5D
:10030000704700BF00080140000C01400010014090
:1003100004080140040C01400410014080B500AF06
:10032000024B1B68984700BF80BD00BF1C00002027
:1003300080B500AF024B1B68984700BF80BD00BF6F
:100340002000002080B400AF0A4B1B68094A43F02C
:1003500001031360084B1B68074A23F00103136075
:10036000054B1B68044A23F00203136000BFBD461F
:1003700080BC7047001002400410024080B483B07B
:1003800000AF03460A46FB711346BB71BB791F2BB6
:100390002AD8FB79022B1CD0022B25DC002B02D0A3
:1003A000012B0BD020E0134B1B68BA79012101FA15
:1003B00002F211460F4A0B43136015E00E4B1B6807
:1003C000BA79012101FA02F211460B4A0B4313607C
:1003D0000AE00A4B1B68BA79012101FA02F21146C0
:1003E000064A0B43136000BF00BF0C37BD4680BCFC
:1003F000704700BF141002401C1002401810024049
:1004000080B483B000AF7860114A7B685360104BB2
:100410001B680F4A43F00103136000E000BF0C4B60
:100420001B681B0C03F00103002BF7D0084B1B6863
:10043000074A23F001031360054B00225A60044B66
:1004400000229A6000BF0C37BD4680BC704700BFD9
:1004500010E000E080B582B000AF124B1B78022B99
:1004600011D1114B1B68104A23F0020313600E4B8D
:100470001B680D4A23F0010313600B4B00225A60E6
:10048000094B00229A60094B1B689847064B1B6872
:100490001B0CDBB203F00103FB7100BF0837BD4644
:1004A00080BD00BF2800002010E000E024000020F4
:1004B00080B400AF0C4B40F241329A600A4BDB68CB
:1004C000094A43F00403D360074BDB68064A43F054
:1004D0000803D360044BDB68034A43F40053D36042
:1004E00000BFBD4680BC70470038014080B483B077
:1004F00000AF0346FB71074AFB79536000BF054B11
:100500001B689B09002BFAD000BF00BF0C37BD460B
:1005100080BC70470038014080B483B000AF00BF9A
:10052000064B1B685B09002BFAD0044B5B68FB7120
:10053000FB7918460C37BD4680BC70470038014037
:1005400080B500AFFFF7FEFE02210220FFF716FF85
:100550000E210220FFF712FF0B2209210020FFF7D6
:1005600007FE04220A210020FFF702FEFFF7A0FF8A
:100570003520FFF7BBFF4FF47A70FFF741FFFFF71D
:10058000CBFFF5E70D488546AFF300800C480D49D9
:100590000D4A002302E0D458C4500433C4188C42DE
:1005A000F9D30A4A0A4C002301E013600432A24244
:1005B000FBD300F011F8FFF7C3FFFEE70050002067
:1005C000000000200000002040060008000000207D
:1005D0002C000020FEE7000070B500260C4D0D4CED
:1005E000641BA410A64209D100F01AF800260A4D97
:1005F0000A4C641BA410A64205D170BD55F8043BFB
:1006000098470136EEE755F8043B98470136F2E784
:100610003806000838060008380600083C060008BE
:10062000F8B500BFF8BC08BC9E467047F8B500BFDF
:08063000F8BC08BC9E467047AF
:040638005501000860
:04063C003101000880
:040000050800058565
:00000001FF
